:020000020000FC
:100000002B982C98000000E007E004B9000040E0C5
:10001000CC27AA2744270FE30000D1D0000000001E
:100020000000CDD0299A000029980000000013B1EB
:1000300013FFEECF0000000013B190D014FF03C0F7
:1000400013FF31C0F7CF8AD013B1000014FFFBCFEC
:100050004030D9F183D082D081D0C395CD31D1F752
:10006000CC274A95403089F1493054F06ED0282F82
:100070007ED0A5D00000292F0E94B700A0D007C0D5
:1000800020E0000074D09BD0242F71D098D00000C5
:10009000299A0000299800004030E1F616C013B1FB
:1000A00013FDB6CFFCCF5AD013B113FF07C0CC2736
:1000B000493101F2C0E013FD2DC0AACF4FD04ED080
:1000C0004DD0C395CD3159F3EFCFCC27AA2799272F
:1000D00000E075D043D073D000000000299A0000E2
:1000E000299800003BD03AD039D0C395CE30D1F713
:1000F000CC27A3959395923051F300E400005FD094
:1001000000005DD0299A000029980000A8300CF466
:10011000E9CF7EDF4395000021D04A3054F015D05E
:10012000282F25D04CD00000292F0E94B70047D09F
:1001300007C020E000001BD042D0242F18D03FD0B1
:10014000299A00002998000075CF80E0942F8395AC
:100150009A50E8F78A952AE0920F0895EAEAF0E0CB
:10016000DFEF0000DA95E9F73197D1F708952030F5
:1001700091F0213091F0223091F0233091F0243031
:1001800091F0253091F0263091F0273091F0283011
:1001900091F0293091F00FE3089506E008950BE502
:1001A00008950FE4089506E608950DE608950DE715
:1001B000089507E008950FE708950FE608950F9357
:1001C0001F931FB71F9318E000000000001F18F0D6
:1001D0002898000002C0289A00002A9A00002A9855
:1001E00000001A9599F71F911FBF1F910F91289832
:0401F000000008956E
:00000001FF
