:020000020000FC
:100000002398209A219A229A40E00FE346D013B118
:1000100013FF01D0FCCF05D013B113FF0BD04395D4
:10002000F6CFEAEAF0E0DFEF0000DA95E9F7319782
:10003000D1F70895403099F04130A1F04230A9F055
:100040004330B1F04430B9F04530C1F04630C9F02A
:100050004730D1F04830D9F04930E1F008950FE34E
:100060001CD0D5CF06E019D0D2CF0BE516D0CFCF1C
:100070000FE413D0CCCF06E610D0C9CF0DE60DD0DB
:10008000C6CF0DE70AD0C3CF07E007D0C0CF0FE738
:1000900004D0BDCF0FE601D0BACF0F931F931FB787
:1000A0001F9318E0001F10F0289801C0289A2A9A80
:1000B0002A981A95B9F7299A29981F911FBF1F915D
:0400C0000F910895FF
:00000001FF
