:020000020000FC
:100000002B982C98000000E007E004B9000040E0C5
:10001000CC27AA2744270FE3B4D082D0B2D0299AA4
:100020002998000013B113FFF3CF0000000013B1B3
:1000300014FF03C013FF2DC0F8CF72D013B114FF0B
:10004000FCCF4030C1F16CD06BD06AD0C395CD31BC
:10005000D1F7CC274A95403071F1493054F057D050
:10006000282F67D08ED00000292F0E94990089D0B8
:1000700007C020E000005DD084D0242F5AD081D06A
:10008000299A29984030F9F616C013B113FDC0CF54
:10009000FCCF46D013B113FF07C0CC27493129F25A
:1000A000C0E013FD1BC0B4CF3BD03AD039D0C395CC
:1000B000CD3159F3EFCFC0E0A0E032D031D030D015
:1000C000C395CE30D1F7CC2790E4092F5AD059D020
:1000D000299A2998A395A83081F7A7CF43950000C6
:1000E0001FD04A3054F013D0282F23D04AD000001C
:1000F000292F0E94990045D007C020E0000019D0A8
:1001000040D0242F16D03DD0299A29988ECF80E058
:10011000942F83959A50E8F78A952AE0920F0895D4
:10012000EAEAF0E0DFEF0000DA95E9F73197D1F77E
:100130000895203091F0213091F0223091F0233059
:1001400091F0243091F0253091F0263091F0273055
:1001500091F0283091F0293091F00FE3089506E0F6
:1001600008950BE508950FE4089506E608950DE659
:1001700008950DE7089507E008950FE708950FE645
:1001800008950F931F931FB71F9318E000000000FE
:10019000001F18F02898000002C0289A00002A9A30
:1001A00000002A9800001A9599F71F911FBF1F9110
:0801B0000F912898000008954A
:00000001FF
