:020000020000FC
:100000002B982C98000000E007E004B9000040E0C5
:10001000CC27AA2744270FE3AED0ADD0299A299840
:10002000000013B113FFF4CF0000000013B114FF60
:100030000AC013FF30C0F8CF6DD06CD06BD0C39521
:10004000CD3131F329C066D013B114FFFCCF40305D
:1000500061F160D05FD05ED0C395CD31D1F7CC27B0
:100060004A954030A9F2493054F04BD0282F5BD04C
:1000700082D00000292F0E9493007DD007C020E08D
:10008000000051D078D0242F4ED075D0299A2998CD
:100090004030F9F60AC03ED013B113FFCDCF49313D
:1000A00019F2C0E013FD14C0B3CFC0E0A0E032D01D
:1000B00031D030D0C395CE30D1F7CC2790E4092F82
:1000C0005AD059D0299A2998A395A83081F7ACCF56
:1000D000439500001FD04A3054F013D0282F23D06E
:1000E0004AD00000292F0E94930045D007C020E08D
:1000F000000019D040D0242F16D03DD0299A29983D
:1001000093CF80E0942F83959A50E8F78A952AE060
:10011000920F0895EAEAF0E0DFEF0000DA95E9F7E0
:100120003197D1F70895203091F0213091F02230AD
:1001300091F0233091F0243091F0253091F0263069
:1001400091F0273091F0283091F0293091F00FE3B1
:10015000089506E008950BE508950FE4089506E676
:1001600008950DE608950DE7089507E008950FE757
:1001700008950FE608950F931F931FB71F9318E07C
:1001800000000000001F18F02898000002C0289A04
:1001900000002A9A00002A9800001A9599F71F91EA
:0C01A0001FBF1F910F91289800000895C8
:00000001FF
