:020000020000FC
:100000002398209A219A229A40E00FE360D05FD093
:10001000299A299813B113FD01D0FCCF1CD01BD015
:100020001AD019D018D013B113FF01D0F3CF4395D4
:1000300009D050E0252F18D063E0262F15D0299A3B
:100040002998089550E0642F13950A50E8F75A95BF
:100050002AE0620F0895EAEAF0E0DFEF0000DA95A7
:10006000E9F73197D1F70895203099F02130A1F0C8
:100070002230A9F02330B1F02430B9F02530C1F09E
:100080002630C9F02730D1F02830D9F02930E1F0FE
:1000900008950FE31CD0BECF06E019D0BBCF0BE50F
:1000A00016D0B8CF0FE413D0B5CF06E610D0B2CF3C
:1000B0000DE60DD0AFCF0DE70AD0ACCF07E007D0EB
:1000C000A9CF0FE704D0A6CF0FE601D0A3CF0F939F
:1000D0001F931FB71F9318E0001F10F0289801C04E
:1000E000289A2A9A2A981A95B9F71F911FBF1F912B
:0400F0000F910895CF
:00000001FF
