:020000020000FC
:100000002C98000000E007E004B9000040E00FE396
:1000100062D061D0299A299800000000000013B135
:1000200014FF01C0FACF26D013B114FD01C0F5CFE3
:10003000439500001FD04A3054F013D0282F23D00E
:100040004AD00000292F0E94430045D007C020E07D
:10005000000019D040D0242F16D03DD0299A2998DD
:10006000DCCF80E0942F83959A50E8F78A952AE0B8
:10007000920F0895EAEAF0E0DFEF0000DA95E9F781
:100080003197D1F70895203091F0213091F022304E
:1000900091F0233091F0243091F0253091F026300A
:1000A00091F0273091F0283091F0293091F00FE352
:1000B000089506E008950BE508950FE4089506E617
:1000C00008950DE608950DE7089507E008950FE7F8
:1000D00008950FE608950F931F931FB71F9318E01D
:1000E00000000000001F10F0289802C0289A0000AD
:1000F0002A9A00002A9800001A95A1F71F911FBFA5
:0C0100001F910F91289800000000089546
:00000001FF
